{
  "_format": "hh-sol-artifact-1",
  "contractName": "DegenToken",
  "sourceName": "contracts/DegenToken.sol",
  "abi": [
    {
      "inputs": [],
      "stateMutability": "nonpayable",
      "type": "constructor"
    },
    {
      "inputs": [
        {
          "internalType": "address",
          "name": "spender",
          "type": "address"
        },
        {
          "internalType": "uint256",
          "name": "allowance",
          "type": "uint256"
        },
        {
          "internalType": "uint256",
          "name": "needed",
          "type": "uint256"
        }
      ],
      "name": "ERC20InsufficientAllowance",
      "type": "error"
    },
    {
      "inputs": [
        {
          "internalType": "address",
          "name": "sender",
          "type": "address"
        },
        {
          "internalType": "uint256",
          "name": "balance",
          "type": "uint256"
        },
        {
          "internalType": "uint256",
          "name": "needed",
          "type": "uint256"
        }
      ],
      "name": "ERC20InsufficientBalance",
      "type": "error"
    },
    {
      "inputs": [
        {
          "internalType": "address",
          "name": "approver",
          "type": "address"
        }
      ],
      "name": "ERC20InvalidApprover",
      "type": "error"
    },
    {
      "inputs": [
        {
          "internalType": "address",
          "name": "receiver",
          "type": "address"
        }
      ],
      "name": "ERC20InvalidReceiver",
      "type": "error"
    },
    {
      "inputs": [
        {
          "internalType": "address",
          "name": "sender",
          "type": "address"
        }
      ],
      "name": "ERC20InvalidSender",
      "type": "error"
    },
    {
      "inputs": [
        {
          "internalType": "address",
          "name": "spender",
          "type": "address"
        }
      ],
      "name": "ERC20InvalidSpender",
      "type": "error"
    },
    {
      "inputs": [
        {
          "internalType": "address",
          "name": "owner",
          "type": "address"
        }
      ],
      "name": "OwnableInvalidOwner",
      "type": "error"
    },
    {
      "inputs": [
        {
          "internalType": "address",
          "name": "account",
          "type": "address"
        }
      ],
      "name": "OwnableUnauthorizedAccount",
      "type": "error"
    },
    {
      "anonymous": false,
      "inputs": [
        {
          "indexed": true,
          "internalType": "address",
          "name": "owner",
          "type": "address"
        },
        {
          "indexed": true,
          "internalType": "address",
          "name": "spender",
          "type": "address"
        },
        {
          "indexed": false,
          "internalType": "uint256",
          "name": "value",
          "type": "uint256"
        }
      ],
      "name": "Approval",
      "type": "event"
    },
    {
      "anonymous": false,
      "inputs": [
        {
          "indexed": true,
          "internalType": "address",
          "name": "previousOwner",
          "type": "address"
        },
        {
          "indexed": true,
          "internalType": "address",
          "name": "newOwner",
          "type": "address"
        }
      ],
      "name": "OwnershipTransferred",
      "type": "event"
    },
    {
      "anonymous": false,
      "inputs": [
        {
          "indexed": true,
          "internalType": "address",
          "name": "from",
          "type": "address"
        },
        {
          "indexed": true,
          "internalType": "address",
          "name": "to",
          "type": "address"
        },
        {
          "indexed": false,
          "internalType": "uint256",
          "name": "value",
          "type": "uint256"
        }
      ],
      "name": "Transfer",
      "type": "event"
    },
    {
      "anonymous": false,
      "inputs": [
        {
          "indexed": true,
          "internalType": "address",
          "name": "buyer",
          "type": "address"
        },
        {
          "indexed": false,
          "internalType": "uint256",
          "name": "itemId",
          "type": "uint256"
        },
        {
          "indexed": false,
          "internalType": "uint256",
          "name": "quantity",
          "type": "uint256"
        }
      ],
      "name": "itemPurchased",
      "type": "event"
    },
    {
      "inputs": [
        {
          "internalType": "address",
          "name": "",
          "type": "address"
        },
        {
          "internalType": "uint256",
          "name": "",
          "type": "uint256"
        }
      ],
      "name": "addressToItemsOwned",
      "outputs": [
        {
          "internalType": "string",
          "name": "name",
          "type": "string"
        },
        {
          "internalType": "uint256",
          "name": "quantity",
          "type": "uint256"
        }
      ],
      "stateMutability": "view",
      "type": "function"
    },
    {
      "inputs": [
        {
          "internalType": "address",
          "name": "owner",
          "type": "address"
        },
        {
          "internalType": "address",
          "name": "spender",
          "type": "address"
        }
      ],
      "name": "allowance",
      "outputs": [
        {
          "internalType": "uint256",
          "name": "",
          "type": "uint256"
        }
      ],
      "stateMutability": "view",
      "type": "function"
    },
    {
      "inputs": [
        {
          "internalType": "address",
          "name": "spender",
          "type": "address"
        },
        {
          "internalType": "uint256",
          "name": "value",
          "type": "uint256"
        }
      ],
      "name": "approve",
      "outputs": [
        {
          "internalType": "bool",
          "name": "",
          "type": "bool"
        }
      ],
      "stateMutability": "nonpayable",
      "type": "function"
    },
    {
      "inputs": [
        {
          "internalType": "address",
          "name": "account",
          "type": "address"
        }
      ],
      "name": "balanceOf",
      "outputs": [
        {
          "internalType": "uint256",
          "name": "",
          "type": "uint256"
        }
      ],
      "stateMutability": "view",
      "type": "function"
    },
    {
      "inputs": [
        {
          "internalType": "uint256",
          "name": "_value",
          "type": "uint256"
        }
      ],
      "name": "burnTokens",
      "outputs": [],
      "stateMutability": "nonpayable",
      "type": "function"
    },
    {
      "inputs": [
        {
          "internalType": "string",
          "name": "_name",
          "type": "string"
        },
        {
          "internalType": "uint256",
          "name": "_price",
          "type": "uint256"
        }
      ],
      "name": "createNewItem",
      "outputs": [],
      "stateMutability": "nonpayable",
      "type": "function"
    },
    {
      "inputs": [],
      "name": "decimals",
      "outputs": [
        {
          "internalType": "uint8",
          "name": "",
          "type": "uint8"
        }
      ],
      "stateMutability": "view",
      "type": "function"
    },
    {
      "inputs": [
        {
          "internalType": "address",
          "name": "buyer",
          "type": "address"
        }
      ],
      "name": "getItemsPurchasedByAddress",
      "outputs": [
        {
          "components": [
            {
              "internalType": "string",
              "name": "name",
              "type": "string"
            },
            {
              "internalType": "uint256",
              "name": "quantity",
              "type": "uint256"
            }
          ],
          "internalType": "struct DegenToken.ownedItems[]",
          "name": "",
          "type": "tuple[]"
        }
      ],
      "stateMutability": "view",
      "type": "function"
    },
    {
      "inputs": [
        {
          "internalType": "address",
          "name": "to",
          "type": "address"
        },
        {
          "internalType": "uint256",
          "name": "amount",
          "type": "uint256"
        }
      ],
      "name": "mint",
      "outputs": [],
      "stateMutability": "nonpayable",
      "type": "function"
    },
    {
      "inputs": [],
      "name": "name",
      "outputs": [
        {
          "internalType": "string",
          "name": "",
          "type": "string"
        }
      ],
      "stateMutability": "view",
      "type": "function"
    },
    {
      "inputs": [],
      "name": "owner",
      "outputs": [
        {
          "internalType": "address",
          "name": "",
          "type": "address"
        }
      ],
      "stateMutability": "view",
      "type": "function"
    },
    {
      "inputs": [
        {
          "internalType": "uint8",
          "name": "_itemId",
          "type": "uint8"
        },
        {
          "internalType": "uint256",
          "name": "_quantity",
          "type": "uint256"
        }
      ],
      "name": "purchaseItem",
      "outputs": [],
      "stateMutability": "nonpayable",
      "type": "function"
    },
    {
      "inputs": [],
      "name": "renounceOwnership",
      "outputs": [],
      "stateMutability": "nonpayable",
      "type": "function"
    },
    {
      "inputs": [
        {
          "internalType": "uint256",
          "name": "",
          "type": "uint256"
        }
      ],
      "name": "shopItems",
      "outputs": [
        {
          "internalType": "uint8",
          "name": "itemId",
          "type": "uint8"
        },
        {
          "internalType": "string",
          "name": "name",
          "type": "string"
        },
        {
          "internalType": "uint256",
          "name": "price",
          "type": "uint256"
        }
      ],
      "stateMutability": "view",
      "type": "function"
    },
    {
      "inputs": [],
      "name": "symbol",
      "outputs": [
        {
          "internalType": "string",
          "name": "",
          "type": "string"
        }
      ],
      "stateMutability": "view",
      "type": "function"
    },
    {
      "inputs": [],
      "name": "totalSupply",
      "outputs": [
        {
          "internalType": "uint256",
          "name": "",
          "type": "uint256"
        }
      ],
      "stateMutability": "view",
      "type": "function"
    },
    {
      "inputs": [
        {
          "internalType": "address",
          "name": "to",
          "type": "address"
        },
        {
          "internalType": "uint256",
          "name": "value",
          "type": "uint256"
        }
      ],
      "name": "transfer",
      "outputs": [
        {
          "internalType": "bool",
          "name": "",
          "type": "bool"
        }
      ],
      "stateMutability": "nonpayable",
      "type": "function"
    },
    {
      "inputs": [
        {
          "internalType": "address",
          "name": "from",
          "type": "address"
        },
        {
          "internalType": "address",
          "name": "to",
          "type": "address"
        },
        {
          "internalType": "uint256",
          "name": "value",
          "type": "uint256"
        }
      ],
      "name": "transferFrom",
      "outputs": [
        {
          "internalType": "bool",
          "name": "",
          "type": "bool"
        }
      ],
      "stateMutability": "nonpayable",
      "type": "function"
    },
    {
      "inputs": [
        {
          "internalType": "address",
          "name": "newOwner",
          "type": "address"
        }
      ],
      "name": "transferOwnership",
      "outputs": [],
      "stateMutability": "nonpayable",
      "type": "function"
    }
  ],
  "bytecode": "0x608060405234801562000010575f80fd5b50336040518060400160405280600581526020017f446567656e0000000000000000000000000000000000000000000000000000008152506040518060400160405280600381526020017f44474e000000000000000000000000000000000000000000000000000000000081525081600390816200008f919062000456565b508060049081620000a1919062000456565b5050505f73ffffffffffffffffffffffffffffffffffffffff168173ffffffffffffffffffffffffffffffffffffffff160362000117575f6040517f1e4fbdf70000000000000000000000000000000000000000000000000000000081526004016200010e91906200057d565b60405180910390fd5b62000128816200012f60201b60201c565b5062000598565b5f60055f9054906101000a900473ffffffffffffffffffffffffffffffffffffffff1690508160055f6101000a81548173ffffffffffffffffffffffffffffffffffffffff021916908373ffffffffffffffffffffffffffffffffffffffff1602179055508173ffffffffffffffffffffffffffffffffffffffff168173ffffffffffffffffffffffffffffffffffffffff167f8be0079c531659141344cd1fd0a4f28419497f9722a3daafe3b4186f6b6457e060405160405180910390a35050565b5f81519050919050565b7f4e487b71000000000000000000000000000000000000000000000000000000005f52604160045260245ffd5b7f4e487b71000000000000000000000000000000000000000000000000000000005f52602260045260245ffd5b5f60028204905060018216806200026e57607f821691505b60208210810362000284576200028362000229565b5b50919050565b5f819050815f5260205f209050919050565b5f6020601f8301049050919050565b5f82821b905092915050565b5f60088302620002e87fffffffffffffffffffffffffffffffffffffffffffffffffffffffffffffffff82620002ab565b620002f48683620002ab565b95508019841693508086168417925050509392505050565b5f819050919050565b5f819050919050565b5f6200033e6200033862000332846200030c565b62000315565b6200030c565b9050919050565b5f819050919050565b62000359836200031e565b62000371620003688262000345565b848454620002b7565b825550505050565b5f90565b6200038762000379565b620003948184846200034e565b505050565b5b81811015620003bb57620003af5f826200037d565b6001810190506200039a565b5050565b601f8211156200040a57620003d4816200028a565b620003df846200029c565b81016020851015620003ef578190505b62000407620003fe856200029c565b83018262000399565b50505b505050565b5f82821c905092915050565b5f6200042c5f19846008026200040f565b1980831691505092915050565b5f6200044683836200041b565b9150826002028217905092915050565b6200046182620001f2565b67ffffffffffffffff8111156200047d576200047c620001fc565b5b62000489825462000256565b62000496828285620003bf565b5f60209050601f831160018114620004cc575f8415620004b7578287015190505b620004c3858262000439565b86555062000532565b601f198416620004dc866200028a565b5f5b828110156200050557848901518255600182019150602085019450602081019050620004de565b8683101562000525578489015162000521601f8916826200041b565b8355505b6001600288020188555050505b505050505050565b5f73ffffffffffffffffffffffffffffffffffffffff82169050919050565b5f62000565826200053a565b9050919050565b620005778162000559565b82525050565b5f602082019050620005925f8301846200056c565b92915050565b6121e480620005a65f395ff3fe608060405234801561000f575f80fd5b506004361061011f575f3560e01c80636ec48484116100ab57806391708b281161006f57806391708b281461031c57806395d89b4114610338578063a9059cbb14610356578063dd62ed3e14610386578063f2fde38b146103b65761011f565b80636ec484841461027857806370a08231146102a8578063715018a6146102d857806382ce90c0146102e25780638da5cb5b146102fe5761011f565b8063313ce567116100f2578063313ce567146101bf57806335bf2940146101dd57806340c10f191461020e5780635ca9e3801461022a5780636d1b229d1461025c5761011f565b806306fdde0314610123578063095ea7b31461014157806318160ddd1461017157806323b872dd1461018f575b5f80fd5b61012b6103d2565b60405161013891906115c4565b60405180910390f35b61015b60048036038101906101569190611682565b610462565b60405161016891906116da565b60405180910390f35b610179610484565b6040516101869190611702565b60405180910390f35b6101a960048036038101906101a4919061171b565b61048d565b6040516101b691906116da565b60405180910390f35b6101c76104bb565b6040516101d49190611786565b60405180910390f35b6101f760048036038101906101f29190611682565b6104bf565b60405161020592919061179f565b60405180910390f35b61022860048036038101906102239190611682565b61057f565b005b610244600480360381019061023f91906117cd565b610595565b604051610253939291906117f8565b60405180910390f35b610276600480360381019061027191906117cd565b61065c565b005b610292600480360381019061028d9190611834565b6106b4565b60405161029f91906119ab565b60405180910390f35b6102c260048036038101906102bd9190611834565b6107e6565b6040516102cf9190611702565b60405180910390f35b6102e061082b565b005b6102fc60048036038101906102f79190611af7565b61083e565b005b6103066108e1565b6040516103139190611b60565b60405180910390f35b61033660048036038101906103319190611ba3565b610909565b005b610340610bb7565b60405161034d91906115c4565b60405180910390f35b610370600480360381019061036b9190611682565b610c47565b60405161037d91906116da565b60405180910390f35b6103a0600480360381019061039b9190611be1565b610c69565b6040516103ad9190611702565b60405180910390f35b6103d060048036038101906103cb9190611834565b610ceb565b005b6060600380546103e190611c4c565b80601f016020809104026020016040519081016040528092919081815260200182805461040d90611c4c565b80156104585780601f1061042f57610100808354040283529160200191610458565b820191905f5260205f20905b81548152906001019060200180831161043b57829003601f168201915b5050505050905090565b5f8061046c610d6f565b9050610479818585610d76565b600191505092915050565b5f600254905090565b5f80610497610d6f565b90506104a4858285610d88565b6104af858585610e1a565b60019150509392505050565b5f90565b6006602052815f5260405f2081815481106104d8575f80fd5b905f5260205f2090600202015f9150915050805f0180546104f890611c4c565b80601f016020809104026020016040519081016040528092919081815260200182805461052490611c4c565b801561056f5780601f106105465761010080835404028352916020019161056f565b820191905f5260205f20905b81548152906001019060200180831161055257829003601f168201915b5050505050908060010154905082565b610587610f0a565b6105918282610f91565b5050565b600781815481106105a4575f80fd5b905f5260205f2090600302015f91509050805f015f9054906101000a900460ff16908060010180546105d590611c4c565b80601f016020809104026020016040519081016040528092919081815260200182805461060190611c4c565b801561064c5780601f106106235761010080835404028352916020019161064c565b820191905f5260205f20905b81548152906001019060200180831161062f57829003601f168201915b5050505050908060020154905083565b80610666336107e6565b10156106a7576040517f08c379a000000000000000000000000000000000000000000000000000000000815260040161069e90611cc6565b60405180910390fd5b6106b13382611010565b50565b606060065f8373ffffffffffffffffffffffffffffffffffffffff1673ffffffffffffffffffffffffffffffffffffffff1681526020019081526020015f20805480602002602001604051908101604052809291908181526020015f905b828210156107db578382905f5260205f2090600202016040518060400160405290815f8201805461074290611c4c565b80601f016020809104026020016040519081016040528092919081815260200182805461076e90611c4c565b80156107b95780601f10610790576101008083540402835291602001916107b9565b820191905f5260205f20905b81548152906001019060200180831161079c57829003601f168201915b5050505050815260200160018201548152505081526020019060010190610712565b505050509050919050565b5f805f8373ffffffffffffffffffffffffffffffffffffffff1673ffffffffffffffffffffffffffffffffffffffff1681526020019081526020015f20549050919050565b610833610f0a565b61083c5f61108f565b565b610846610f0a565b6007604051806060016040528060016007805490506108659190611d11565b60ff16815260200184815260200183815250908060018154018082558091505060019003905f5260205f2090600302015f909190919091505f820151815f015f6101000a81548160ff021916908360ff16021790555060208201518160010190816108d09190611ee1565b506040820151816002015550505050565b5f60055f9054906101000a900473ffffffffffffffffffffffffffffffffffffffff16905090565b5f8260ff1611801561092357506007805490508260ff1611155b610962576040517f08c379a000000000000000000000000000000000000000000000000000000000815260040161095990611ffa565b60405180910390fd5b5f8160076001856109739190612018565b60ff16815481106109875761098661204c565b5b905f5260205f209060030201600201546109a19190612079565b9050806109b46109af610d6f565b6107e6565b10156109f5576040517f08c379a00000000000000000000000000000000000000000000000000000000081526004016109ec90612104565b60405180910390fd5b610a06610a00610d6f565b82611010565b5f60405180604001604052806007600187610a219190612018565b60ff1681548110610a3557610a3461204c565b5b905f5260205f2090600302016001018054610a4f90611c4c565b80601f0160208091040260200160405190810160405280929190818152602001828054610a7b90611c4c565b8015610ac65780601f10610a9d57610100808354040283529160200191610ac6565b820191905f5260205f20905b815481529060010190602001808311610aa957829003601f168201915b5050505050815260200184815250905060065f3373ffffffffffffffffffffffffffffffffffffffff1673ffffffffffffffffffffffffffffffffffffffff1681526020019081526020015f2081908060018154018082558091505060019003905f5260205f2090600202015f909190919091505f820151815f019081610b4d9190611ee1565b50602082015181600101555050610b62610d6f565b73ffffffffffffffffffffffffffffffffffffffff167ffd80f748202072fbf019cde492b4320cc89d62fffe36601374a986d5db4636528585604051610ba9929190612152565b60405180910390a250505050565b606060048054610bc690611c4c565b80601f0160208091040260200160405190810160405280929190818152602001828054610bf290611c4c565b8015610c3d5780601f10610c1457610100808354040283529160200191610c3d565b820191905f5260205f20905b815481529060010190602001808311610c2057829003601f168201915b5050505050905090565b5f80610c51610d6f565b9050610c5e818585610e1a565b600191505092915050565b5f60015f8473ffffffffffffffffffffffffffffffffffffffff1673ffffffffffffffffffffffffffffffffffffffff1681526020019081526020015f205f8373ffffffffffffffffffffffffffffffffffffffff1673ffffffffffffffffffffffffffffffffffffffff1681526020019081526020015f2054905092915050565b610cf3610f0a565b5f73ffffffffffffffffffffffffffffffffffffffff168173ffffffffffffffffffffffffffffffffffffffff1603610d63575f6040517f1e4fbdf7000000000000000000000000000000000000000000000000000000008152600401610d5a9190611b60565b60405180910390fd5b610d6c8161108f565b50565b5f33905090565b610d838383836001611152565b505050565b5f610d938484610c69565b90507fffffffffffffffffffffffffffffffffffffffffffffffffffffffffffffffff8114610e145781811015610e05578281836040517ffb8f41b2000000000000000000000000000000000000000000000000000000008152600401610dfc93929190612179565b60405180910390fd5b610e1384848484035f611152565b5b50505050565b5f73ffffffffffffffffffffffffffffffffffffffff168373ffffffffffffffffffffffffffffffffffffffff1603610e8a575f6040517f96c6fd1e000000000000000000000000000000000000000000000000000000008152600401610e819190611b60565b60405180910390fd5b5f73ffffffffffffffffffffffffffffffffffffffff168273ffffffffffffffffffffffffffffffffffffffff1603610efa575f6040517fec442f05000000000000000000000000000000000000000000000000000000008152600401610ef19190611b60565b60405180910390fd5b610f05838383611321565b505050565b610f12610d6f565b73ffffffffffffffffffffffffffffffffffffffff16610f306108e1565b73ffffffffffffffffffffffffffffffffffffffff1614610f8f57610f53610d6f565b6040517f118cdaa7000000000000000000000000000000000000000000000000000000008152600401610f869190611b60565b60405180910390fd5b565b5f73ffffffffffffffffffffffffffffffffffffffff168273ffffffffffffffffffffffffffffffffffffffff1603611001575f6040517fec442f05000000000000000000000000000000000000000000000000000000008152600401610ff89190611b60565b60405180910390fd5b61100c5f8383611321565b5050565b5f73ffffffffffffffffffffffffffffffffffffffff168273ffffffffffffffffffffffffffffffffffffffff1603611080575f6040517f96c6fd1e0000000000000000000000000000000000000000000000000000000081526004016110779190611b60565b60405180910390fd5b61108b825f83611321565b5050565b5f60055f9054906101000a900473ffffffffffffffffffffffffffffffffffffffff1690508160055f6101000a81548173ffffffffffffffffffffffffffffffffffffffff021916908373ffffffffffffffffffffffffffffffffffffffff1602179055508173ffffffffffffffffffffffffffffffffffffffff168173ffffffffffffffffffffffffffffffffffffffff167f8be0079c531659141344cd1fd0a4f28419497f9722a3daafe3b4186f6b6457e060405160405180910390a35050565b5f73ffffffffffffffffffffffffffffffffffffffff168473ffffffffffffffffffffffffffffffffffffffff16036111c2575f6040517fe602df050000000000000000000000000000000000000000000000000000000081526004016111b99190611b60565b60405180910390fd5b5f73ffffffffffffffffffffffffffffffffffffffff168373ffffffffffffffffffffffffffffffffffffffff1603611232575f6040517f94280d620000000000000000000000000000000000000000000000000000000081526004016112299190611b60565b60405180910390fd5b8160015f8673ffffffffffffffffffffffffffffffffffffffff1673ffffffffffffffffffffffffffffffffffffffff1681526020019081526020015f205f8573ffffffffffffffffffffffffffffffffffffffff1673ffffffffffffffffffffffffffffffffffffffff1681526020019081526020015f2081905550801561131b578273ffffffffffffffffffffffffffffffffffffffff168473ffffffffffffffffffffffffffffffffffffffff167f8c5be1e5ebec7d5bd14f71427d1e84f3dd0314c0f7b2291e5b200ac8c7c3b925846040516113129190611702565b60405180910390a35b50505050565b5f73ffffffffffffffffffffffffffffffffffffffff168373ffffffffffffffffffffffffffffffffffffffff1603611371578060025f8282546113659190611d11565b9250508190555061143f565b5f805f8573ffffffffffffffffffffffffffffffffffffffff1673ffffffffffffffffffffffffffffffffffffffff1681526020019081526020015f20549050818110156113fa578381836040517fe450d38c0000000000000000000000000000000000000000000000000000000081526004016113f193929190612179565b60405180910390fd5b8181035f808673ffffffffffffffffffffffffffffffffffffffff1673ffffffffffffffffffffffffffffffffffffffff1681526020019081526020015f2081905550505b5f73ffffffffffffffffffffffffffffffffffffffff168273ffffffffffffffffffffffffffffffffffffffff1603611486578060025f82825403925050819055506114d0565b805f808473ffffffffffffffffffffffffffffffffffffffff1673ffffffffffffffffffffffffffffffffffffffff1681526020019081526020015f205f82825401925050819055505b8173ffffffffffffffffffffffffffffffffffffffff168373ffffffffffffffffffffffffffffffffffffffff167fddf252ad1be2c89b69c2b068fc378daa952ba7f163c4a11628f55a4df523b3ef8360405161152d9190611702565b60405180910390a3505050565b5f81519050919050565b5f82825260208201905092915050565b5f5b83811015611571578082015181840152602081019050611556565b5f8484015250505050565b5f601f19601f8301169050919050565b5f6115968261153a565b6115a08185611544565b93506115b0818560208601611554565b6115b98161157c565b840191505092915050565b5f6020820190508181035f8301526115dc818461158c565b905092915050565b5f604051905090565b5f80fd5b5f80fd5b5f73ffffffffffffffffffffffffffffffffffffffff82169050919050565b5f61161e826115f5565b9050919050565b61162e81611614565b8114611638575f80fd5b50565b5f8135905061164981611625565b92915050565b5f819050919050565b6116618161164f565b811461166b575f80fd5b50565b5f8135905061167c81611658565b92915050565b5f8060408385031215611698576116976115ed565b5b5f6116a58582860161163b565b92505060206116b68582860161166e565b9150509250929050565b5f8115159050919050565b6116d4816116c0565b82525050565b5f6020820190506116ed5f8301846116cb565b92915050565b6116fc8161164f565b82525050565b5f6020820190506117155f8301846116f3565b92915050565b5f805f60608486031215611732576117316115ed565b5b5f61173f8682870161163b565b93505060206117508682870161163b565b92505060406117618682870161166e565b9150509250925092565b5f60ff82169050919050565b6117808161176b565b82525050565b5f6020820190506117995f830184611777565b92915050565b5f6040820190508181035f8301526117b7818561158c565b90506117c660208301846116f3565b9392505050565b5f602082840312156117e2576117e16115ed565b5b5f6117ef8482850161166e565b91505092915050565b5f60608201905061180b5f830186611777565b818103602083015261181d818561158c565b905061182c60408301846116f3565b949350505050565b5f60208284031215611849576118486115ed565b5b5f6118568482850161163b565b91505092915050565b5f81519050919050565b5f82825260208201905092915050565b5f819050602082019050919050565b5f82825260208201905092915050565b5f6118a28261153a565b6118ac8185611888565b93506118bc818560208601611554565b6118c58161157c565b840191505092915050565b6118d98161164f565b82525050565b5f604083015f8301518482035f8601526118f98282611898565b915050602083015161190e60208601826118d0565b508091505092915050565b5f61192483836118df565b905092915050565b5f602082019050919050565b5f6119428261185f565b61194c8185611869565b93508360208202850161195e85611879565b805f5b85811015611999578484038952815161197a8582611919565b94506119858361192c565b925060208a01995050600181019050611961565b50829750879550505050505092915050565b5f6020820190508181035f8301526119c38184611938565b905092915050565b5f80fd5b5f80fd5b7f4e487b71000000000000000000000000000000000000000000000000000000005f52604160045260245ffd5b611a098261157c565b810181811067ffffffffffffffff82111715611a2857611a276119d3565b5b80604052505050565b5f611a3a6115e4565b9050611a468282611a00565b919050565b5f67ffffffffffffffff821115611a6557611a646119d3565b5b611a6e8261157c565b9050602081019050919050565b828183375f83830152505050565b5f611a9b611a9684611a4b565b611a31565b905082815260208101848484011115611ab757611ab66119cf565b5b611ac2848285611a7b565b509392505050565b5f82601f830112611ade57611add6119cb565b5b8135611aee848260208601611a89565b91505092915050565b5f8060408385031215611b0d57611b0c6115ed565b5b5f83013567ffffffffffffffff811115611b2a57611b296115f1565b5b611b3685828601611aca565b9250506020611b478582860161166e565b9150509250929050565b611b5a81611614565b82525050565b5f602082019050611b735f830184611b51565b92915050565b611b828161176b565b8114611b8c575f80fd5b50565b5f81359050611b9d81611b79565b92915050565b5f8060408385031215611bb957611bb86115ed565b5b5f611bc685828601611b8f565b9250506020611bd78582860161166e565b9150509250929050565b5f8060408385031215611bf757611bf66115ed565b5b5f611c048582860161163b565b9250506020611c158582860161163b565b9150509250929050565b7f4e487b71000000000000000000000000000000000000000000000000000000005f52602260045260245ffd5b5f6002820490506001821680611c6357607f821691505b602082108103611c7657611c75611c1f565b5b50919050565b7f496e73756666696369656e742046756e647321000000000000000000000000005f82015250565b5f611cb0601383611544565b9150611cbb82611c7c565b602082019050919050565b5f6020820190508181035f830152611cdd81611ca4565b9050919050565b7f4e487b71000000000000000000000000000000000000000000000000000000005f52601160045260245ffd5b5f611d1b8261164f565b9150611d268361164f565b9250828201905080821115611d3e57611d3d611ce4565b5b92915050565b5f819050815f5260205f209050919050565b5f6020601f8301049050919050565b5f82821b905092915050565b5f60088302611da07fffffffffffffffffffffffffffffffffffffffffffffffffffffffffffffffff82611d65565b611daa8683611d65565b95508019841693508086168417925050509392505050565b5f819050919050565b5f611de5611de0611ddb8461164f565b611dc2565b61164f565b9050919050565b5f819050919050565b611dfe83611dcb565b611e12611e0a82611dec565b848454611d71565b825550505050565b5f90565b611e26611e1a565b611e31818484611df5565b505050565b5b81811015611e5457611e495f82611e1e565b600181019050611e37565b5050565b601f821115611e9957611e6a81611d44565b611e7384611d56565b81016020851015611e82578190505b611e96611e8e85611d56565b830182611e36565b50505b505050565b5f82821c905092915050565b5f611eb95f1984600802611e9e565b1980831691505092915050565b5f611ed18383611eaa565b9150826002028217905092915050565b611eea8261153a565b67ffffffffffffffff811115611f0357611f026119d3565b5b611f0d8254611c4c565b611f18828285611e58565b5f60209050601f831160018114611f49575f8415611f37578287015190505b611f418582611ec6565b865550611fa8565b601f198416611f5786611d44565b5f5b82811015611f7e57848901518255600182019150602085019450602081019050611f59565b86831015611f9b5784890151611f97601f891682611eaa565b8355505b6001600288020188555050505b505050505050565b7f496e76616c6964206974656d20494400000000000000000000000000000000005f82015250565b5f611fe4600f83611544565b9150611fef82611fb0565b602082019050919050565b5f6020820190508181035f83015261201181611fd8565b9050919050565b5f6120228261176b565b915061202d8361176b565b9250828203905060ff81111561204657612045611ce4565b5b92915050565b7f4e487b71000000000000000000000000000000000000000000000000000000005f52603260045260245ffd5b5f6120838261164f565b915061208e8361164f565b925082820261209c8161164f565b915082820484148315176120b3576120b2611ce4565b5b5092915050565b7f496e73756666696369656e742062616c616e6365203a280000000000000000005f82015250565b5f6120ee601783611544565b91506120f9826120ba565b602082019050919050565b5f6020820190508181035f83015261211b816120e2565b9050919050565b5f61213c6121376121328461176b565b611dc2565b61164f565b9050919050565b61214c81612122565b82525050565b5f6040820190506121655f830185612143565b61217260208301846116f3565b9392505050565b5f60608201905061218c5f830186611b51565b61219960208301856116f3565b6121a660408301846116f3565b94935050505056fea264697066735822122060cdc24f959674389c87661abb43b8c5f7fffdd9f34b05a2d4cffdeebf2b4ef564736f6c63430008140033",
  "linkReferences": {},
  "deployedLinkReferences": {}
}