{
  "_format": "hh-sol-artifact-1",
  "contractName": "DegenToken",
  "sourceName": "contracts/DegenToken.sol",
  "abi": [
    {
      "inputs": [],
      "stateMutability": "nonpayable",
      "type": "constructor"
    },
    {
      "inputs": [
        {
          "internalType": "address",
          "name": "spender",
          "type": "address"
        },
        {
          "internalType": "uint256",
          "name": "allowance",
          "type": "uint256"
        },
        {
          "internalType": "uint256",
          "name": "needed",
          "type": "uint256"
        }
      ],
      "name": "ERC20InsufficientAllowance",
      "type": "error"
    },
    {
      "inputs": [
        {
          "internalType": "address",
          "name": "sender",
          "type": "address"
        },
        {
          "internalType": "uint256",
          "name": "balance",
          "type": "uint256"
        },
        {
          "internalType": "uint256",
          "name": "needed",
          "type": "uint256"
        }
      ],
      "name": "ERC20InsufficientBalance",
      "type": "error"
    },
    {
      "inputs": [
        {
          "internalType": "address",
          "name": "approver",
          "type": "address"
        }
      ],
      "name": "ERC20InvalidApprover",
      "type": "error"
    },
    {
      "inputs": [
        {
          "internalType": "address",
          "name": "receiver",
          "type": "address"
        }
      ],
      "name": "ERC20InvalidReceiver",
      "type": "error"
    },
    {
      "inputs": [
        {
          "internalType": "address",
          "name": "sender",
          "type": "address"
        }
      ],
      "name": "ERC20InvalidSender",
      "type": "error"
    },
    {
      "inputs": [
        {
          "internalType": "address",
          "name": "spender",
          "type": "address"
        }
      ],
      "name": "ERC20InvalidSpender",
      "type": "error"
    },
    {
      "inputs": [
        {
          "internalType": "address",
          "name": "owner",
          "type": "address"
        }
      ],
      "name": "OwnableInvalidOwner",
      "type": "error"
    },
    {
      "inputs": [
        {
          "internalType": "address",
          "name": "account",
          "type": "address"
        }
      ],
      "name": "OwnableUnauthorizedAccount",
      "type": "error"
    },
    {
      "anonymous": false,
      "inputs": [
        {
          "indexed": true,
          "internalType": "address",
          "name": "owner",
          "type": "address"
        },
        {
          "indexed": true,
          "internalType": "address",
          "name": "spender",
          "type": "address"
        },
        {
          "indexed": false,
          "internalType": "uint256",
          "name": "value",
          "type": "uint256"
        }
      ],
      "name": "Approval",
      "type": "event"
    },
    {
      "anonymous": false,
      "inputs": [
        {
          "indexed": true,
          "internalType": "address",
          "name": "previousOwner",
          "type": "address"
        },
        {
          "indexed": true,
          "internalType": "address",
          "name": "newOwner",
          "type": "address"
        }
      ],
      "name": "OwnershipTransferred",
      "type": "event"
    },
    {
      "anonymous": false,
      "inputs": [
        {
          "indexed": true,
          "internalType": "address",
          "name": "from",
          "type": "address"
        },
        {
          "indexed": true,
          "internalType": "address",
          "name": "to",
          "type": "address"
        },
        {
          "indexed": false,
          "internalType": "uint256",
          "name": "value",
          "type": "uint256"
        }
      ],
      "name": "Transfer",
      "type": "event"
    },
    {
      "anonymous": false,
      "inputs": [
        {
          "indexed": true,
          "internalType": "address",
          "name": "buyer",
          "type": "address"
        },
        {
          "indexed": false,
          "internalType": "uint256",
          "name": "itemId",
          "type": "uint256"
        },
        {
          "indexed": false,
          "internalType": "uint256",
          "name": "quantity",
          "type": "uint256"
        }
      ],
      "name": "itemPurchased",
      "type": "event"
    },
    {
      "inputs": [
        {
          "internalType": "address",
          "name": "owner",
          "type": "address"
        },
        {
          "internalType": "address",
          "name": "spender",
          "type": "address"
        }
      ],
      "name": "allowance",
      "outputs": [
        {
          "internalType": "uint256",
          "name": "",
          "type": "uint256"
        }
      ],
      "stateMutability": "view",
      "type": "function"
    },
    {
      "inputs": [
        {
          "internalType": "address",
          "name": "spender",
          "type": "address"
        },
        {
          "internalType": "uint256",
          "name": "value",
          "type": "uint256"
        }
      ],
      "name": "approve",
      "outputs": [
        {
          "internalType": "bool",
          "name": "",
          "type": "bool"
        }
      ],
      "stateMutability": "nonpayable",
      "type": "function"
    },
    {
      "inputs": [
        {
          "internalType": "address",
          "name": "account",
          "type": "address"
        }
      ],
      "name": "balanceOf",
      "outputs": [
        {
          "internalType": "uint256",
          "name": "",
          "type": "uint256"
        }
      ],
      "stateMutability": "view",
      "type": "function"
    },
    {
      "inputs": [
        {
          "internalType": "uint256",
          "name": "_value",
          "type": "uint256"
        }
      ],
      "name": "burnTokens",
      "outputs": [],
      "stateMutability": "nonpayable",
      "type": "function"
    },
    {
      "inputs": [
        {
          "internalType": "string",
          "name": "_name",
          "type": "string"
        },
        {
          "internalType": "uint256",
          "name": "_price",
          "type": "uint256"
        }
      ],
      "name": "createNewItem",
      "outputs": [],
      "stateMutability": "nonpayable",
      "type": "function"
    },
    {
      "inputs": [],
      "name": "decimals",
      "outputs": [
        {
          "internalType": "uint8",
          "name": "",
          "type": "uint8"
        }
      ],
      "stateMutability": "view",
      "type": "function"
    },
    {
      "inputs": [
        {
          "internalType": "address",
          "name": "to",
          "type": "address"
        },
        {
          "internalType": "uint256",
          "name": "amount",
          "type": "uint256"
        }
      ],
      "name": "mint",
      "outputs": [],
      "stateMutability": "nonpayable",
      "type": "function"
    },
    {
      "inputs": [],
      "name": "name",
      "outputs": [
        {
          "internalType": "string",
          "name": "",
          "type": "string"
        }
      ],
      "stateMutability": "view",
      "type": "function"
    },
    {
      "inputs": [],
      "name": "owner",
      "outputs": [
        {
          "internalType": "address",
          "name": "",
          "type": "address"
        }
      ],
      "stateMutability": "view",
      "type": "function"
    },
    {
      "inputs": [
        {
          "internalType": "uint8",
          "name": "_itemId",
          "type": "uint8"
        },
        {
          "internalType": "uint256",
          "name": "_quantity",
          "type": "uint256"
        }
      ],
      "name": "purchaseItem",
      "outputs": [],
      "stateMutability": "nonpayable",
      "type": "function"
    },
    {
      "inputs": [],
      "name": "renounceOwnership",
      "outputs": [],
      "stateMutability": "nonpayable",
      "type": "function"
    },
    {
      "inputs": [
        {
          "internalType": "uint256",
          "name": "",
          "type": "uint256"
        }
      ],
      "name": "shopItems",
      "outputs": [
        {
          "internalType": "uint8",
          "name": "itemId",
          "type": "uint8"
        },
        {
          "internalType": "string",
          "name": "name",
          "type": "string"
        },
        {
          "internalType": "uint256",
          "name": "price",
          "type": "uint256"
        }
      ],
      "stateMutability": "view",
      "type": "function"
    },
    {
      "inputs": [],
      "name": "symbol",
      "outputs": [
        {
          "internalType": "string",
          "name": "",
          "type": "string"
        }
      ],
      "stateMutability": "view",
      "type": "function"
    },
    {
      "inputs": [],
      "name": "totalSupply",
      "outputs": [
        {
          "internalType": "uint256",
          "name": "",
          "type": "uint256"
        }
      ],
      "stateMutability": "view",
      "type": "function"
    },
    {
      "inputs": [
        {
          "internalType": "address",
          "name": "to",
          "type": "address"
        },
        {
          "internalType": "uint256",
          "name": "value",
          "type": "uint256"
        }
      ],
      "name": "transfer",
      "outputs": [
        {
          "internalType": "bool",
          "name": "",
          "type": "bool"
        }
      ],
      "stateMutability": "nonpayable",
      "type": "function"
    },
    {
      "inputs": [
        {
          "internalType": "address",
          "name": "from",
          "type": "address"
        },
        {
          "internalType": "address",
          "name": "to",
          "type": "address"
        },
        {
          "internalType": "uint256",
          "name": "value",
          "type": "uint256"
        }
      ],
      "name": "transferFrom",
      "outputs": [
        {
          "internalType": "bool",
          "name": "",
          "type": "bool"
        }
      ],
      "stateMutability": "nonpayable",
      "type": "function"
    },
    {
      "inputs": [
        {
          "internalType": "address",
          "name": "newOwner",
          "type": "address"
        }
      ],
      "name": "transferOwnership",
      "outputs": [],
      "stateMutability": "nonpayable",
      "type": "function"
    }
  ],
  "bytecode": "0x608060405234801562000010575f80fd5b50336040518060400160405280600581526020017f446567656e0000000000000000000000000000000000000000000000000000008152506040518060400160405280600381526020017f44474e000000000000000000000000000000000000000000000000000000000081525081600390816200008f919062000456565b508060049081620000a1919062000456565b5050505f73ffffffffffffffffffffffffffffffffffffffff168173ffffffffffffffffffffffffffffffffffffffff160362000117575f6040517f1e4fbdf70000000000000000000000000000000000000000000000000000000081526004016200010e91906200057d565b60405180910390fd5b62000128816200012f60201b60201c565b5062000598565b5f60055f9054906101000a900473ffffffffffffffffffffffffffffffffffffffff1690508160055f6101000a81548173ffffffffffffffffffffffffffffffffffffffff021916908373ffffffffffffffffffffffffffffffffffffffff1602179055508173ffffffffffffffffffffffffffffffffffffffff168173ffffffffffffffffffffffffffffffffffffffff167f8be0079c531659141344cd1fd0a4f28419497f9722a3daafe3b4186f6b6457e060405160405180910390a35050565b5f81519050919050565b7f4e487b71000000000000000000000000000000000000000000000000000000005f52604160045260245ffd5b7f4e487b71000000000000000000000000000000000000000000000000000000005f52602260045260245ffd5b5f60028204905060018216806200026e57607f821691505b60208210810362000284576200028362000229565b5b50919050565b5f819050815f5260205f209050919050565b5f6020601f8301049050919050565b5f82821b905092915050565b5f60088302620002e87fffffffffffffffffffffffffffffffffffffffffffffffffffffffffffffffff82620002ab565b620002f48683620002ab565b95508019841693508086168417925050509392505050565b5f819050919050565b5f819050919050565b5f6200033e6200033862000332846200030c565b62000315565b6200030c565b9050919050565b5f819050919050565b62000359836200031e565b62000371620003688262000345565b848454620002b7565b825550505050565b5f90565b6200038762000379565b620003948184846200034e565b505050565b5b81811015620003bb57620003af5f826200037d565b6001810190506200039a565b5050565b601f8211156200040a57620003d4816200028a565b620003df846200029c565b81016020851015620003ef578190505b62000407620003fe856200029c565b83018262000399565b50505b505050565b5f82821c905092915050565b5f6200042c5f19846008026200040f565b1980831691505092915050565b5f6200044683836200041b565b9150826002028217905092915050565b6200046182620001f2565b67ffffffffffffffff8111156200047d576200047c620001fc565b5b62000489825462000256565b62000496828285620003bf565b5f60209050601f831160018114620004cc575f8415620004b7578287015190505b620004c3858262000439565b86555062000532565b601f198416620004dc866200028a565b5f5b828110156200050557848901518255600182019150602085019450602081019050620004de565b8683101562000525578489015162000521601f8916826200041b565b8355505b6001600288020188555050505b505050505050565b5f73ffffffffffffffffffffffffffffffffffffffff82169050919050565b5f62000565826200053a565b9050919050565b620005778162000559565b82525050565b5f602082019050620005925f8301846200056c565b92915050565b611c8c80620005a65f395ff3fe608060405234801561000f575f80fd5b5060043610610109575f3560e01c806370a08231116100a057806391708b281161006f57806391708b28146102a557806395d89b41146102c1578063a9059cbb146102df578063dd62ed3e1461030f578063f2fde38b1461033f57610109565b806370a0823114610231578063715018a61461026157806382ce90c01461026b5780638da5cb5b1461028757610109565b8063313ce567116100dc578063313ce567146101a957806340c10f19146101c75780635ca9e380146101e35780636d1b229d1461021557610109565b806306fdde031461010d578063095ea7b31461012b57806318160ddd1461015b57806323b872dd14610179575b5f80fd5b61011561035b565b6040516101229190611206565b60405180910390f35b610145600480360381019061014091906112c4565b6103eb565b604051610152919061131c565b60405180910390f35b61016361040d565b6040516101709190611344565b60405180910390f35b610193600480360381019061018e919061135d565b610416565b6040516101a0919061131c565b60405180910390f35b6101b1610444565b6040516101be91906113c8565b60405180910390f35b6101e160048036038101906101dc91906112c4565b610448565b005b6101fd60048036038101906101f891906113e1565b61045e565b60405161020c9392919061140c565b60405180910390f35b61022f600480360381019061022a91906113e1565b610525565b005b61024b60048036038101906102469190611448565b61057d565b6040516102589190611344565b60405180910390f35b6102696105c2565b005b6102856004803603810190610280919061159f565b6105d5565b005b61028f610678565b60405161029c9190611608565b60405180910390f35b6102bf60048036038101906102ba919061164b565b6106a0565b005b6102c96107f9565b6040516102d69190611206565b60405180910390f35b6102f960048036038101906102f491906112c4565b610889565b604051610306919061131c565b60405180910390f35b61032960048036038101906103249190611689565b6108ab565b6040516103369190611344565b60405180910390f35b61035960048036038101906103549190611448565b61092d565b005b60606003805461036a906116f4565b80601f0160208091040260200160405190810160405280929190818152602001828054610396906116f4565b80156103e15780601f106103b8576101008083540402835291602001916103e1565b820191905f5260205f20905b8154815290600101906020018083116103c457829003601f168201915b5050505050905090565b5f806103f56109b1565b90506104028185856109b8565b600191505092915050565b5f600254905090565b5f806104206109b1565b905061042d8582856109ca565b610438858585610a5c565b60019150509392505050565b5f90565b610450610b4c565b61045a8282610bd3565b5050565b6006818154811061046d575f80fd5b905f5260205f2090600302015f91509050805f015f9054906101000a900460ff169080600101805461049e906116f4565b80601f01602080910402602001604051908101604052809291908181526020018280546104ca906116f4565b80156105155780601f106104ec57610100808354040283529160200191610515565b820191905f5260205f20905b8154815290600101906020018083116104f857829003601f168201915b5050505050908060020154905083565b8061052f3361057d565b1015610570576040517f08c379a00000000000000000000000000000000000000000000000000000000081526004016105679061176e565b60405180910390fd5b61057a3382610c52565b50565b5f805f8373ffffffffffffffffffffffffffffffffffffffff1673ffffffffffffffffffffffffffffffffffffffff1681526020019081526020015f20549050919050565b6105ca610b4c565b6105d35f610cd1565b565b6105dd610b4c565b6006604051806060016040528060016006805490506105fc91906117b9565b60ff16815260200184815260200183815250908060018154018082558091505060019003905f5260205f2090600302015f909190919091505f820151815f015f6101000a81548160ff021916908360ff16021790555060208201518160010190816106679190611989565b506040820151816002015550505050565b5f60055f9054906101000a900473ffffffffffffffffffffffffffffffffffffffff16905090565b5f8260ff161180156106ba57506006805490508260ff1611155b6106f9576040517f08c379a00000000000000000000000000000000000000000000000000000000081526004016106f090611aa2565b60405180910390fd5b5f81600660018561070a9190611ac0565b60ff168154811061071e5761071d611af4565b5b905f5260205f209060030201600201546107389190611b21565b90508061074b6107466109b1565b61057d565b101561078c576040517f08c379a000000000000000000000000000000000000000000000000000000000815260040161078390611bac565b60405180910390fd5b61079d6107976109b1565b82610c52565b6107a56109b1565b73ffffffffffffffffffffffffffffffffffffffff167ffd80f748202072fbf019cde492b4320cc89d62fffe36601374a986d5db46365284846040516107ec929190611bfa565b60405180910390a2505050565b606060048054610808906116f4565b80601f0160208091040260200160405190810160405280929190818152602001828054610834906116f4565b801561087f5780601f106108565761010080835404028352916020019161087f565b820191905f5260205f20905b81548152906001019060200180831161086257829003601f168201915b5050505050905090565b5f806108936109b1565b90506108a0818585610a5c565b600191505092915050565b5f60015f8473ffffffffffffffffffffffffffffffffffffffff1673ffffffffffffffffffffffffffffffffffffffff1681526020019081526020015f205f8373ffffffffffffffffffffffffffffffffffffffff1673ffffffffffffffffffffffffffffffffffffffff1681526020019081526020015f2054905092915050565b610935610b4c565b5f73ffffffffffffffffffffffffffffffffffffffff168173ffffffffffffffffffffffffffffffffffffffff16036109a5575f6040517f1e4fbdf700000000000000000000000000000000000000000000000000000000815260040161099c9190611608565b60405180910390fd5b6109ae81610cd1565b50565b5f33905090565b6109c58383836001610d94565b505050565b5f6109d584846108ab565b90507fffffffffffffffffffffffffffffffffffffffffffffffffffffffffffffffff8114610a565781811015610a47578281836040517ffb8f41b2000000000000000000000000000000000000000000000000000000008152600401610a3e93929190611c21565b60405180910390fd5b610a5584848484035f610d94565b5b50505050565b5f73ffffffffffffffffffffffffffffffffffffffff168373ffffffffffffffffffffffffffffffffffffffff1603610acc575f6040517f96c6fd1e000000000000000000000000000000000000000000000000000000008152600401610ac39190611608565b60405180910390fd5b5f73ffffffffffffffffffffffffffffffffffffffff168273ffffffffffffffffffffffffffffffffffffffff1603610b3c575f6040517fec442f05000000000000000000000000000000000000000000000000000000008152600401610b339190611608565b60405180910390fd5b610b47838383610f63565b505050565b610b546109b1565b73ffffffffffffffffffffffffffffffffffffffff16610b72610678565b73ffffffffffffffffffffffffffffffffffffffff1614610bd157610b956109b1565b6040517f118cdaa7000000000000000000000000000000000000000000000000000000008152600401610bc89190611608565b60405180910390fd5b565b5f73ffffffffffffffffffffffffffffffffffffffff168273ffffffffffffffffffffffffffffffffffffffff1603610c43575f6040517fec442f05000000000000000000000000000000000000000000000000000000008152600401610c3a9190611608565b60405180910390fd5b610c4e5f8383610f63565b5050565b5f73ffffffffffffffffffffffffffffffffffffffff168273ffffffffffffffffffffffffffffffffffffffff1603610cc2575f6040517f96c6fd1e000000000000000000000000000000000000000000000000000000008152600401610cb99190611608565b60405180910390fd5b610ccd825f83610f63565b5050565b5f60055f9054906101000a900473ffffffffffffffffffffffffffffffffffffffff1690508160055f6101000a81548173ffffffffffffffffffffffffffffffffffffffff021916908373ffffffffffffffffffffffffffffffffffffffff1602179055508173ffffffffffffffffffffffffffffffffffffffff168173ffffffffffffffffffffffffffffffffffffffff167f8be0079c531659141344cd1fd0a4f28419497f9722a3daafe3b4186f6b6457e060405160405180910390a35050565b5f73ffffffffffffffffffffffffffffffffffffffff168473ffffffffffffffffffffffffffffffffffffffff1603610e04575f6040517fe602df05000000000000000000000000000000000000000000000000000000008152600401610dfb9190611608565b60405180910390fd5b5f73ffffffffffffffffffffffffffffffffffffffff168373ffffffffffffffffffffffffffffffffffffffff1603610e74575f6040517f94280d62000000000000000000000000000000000000000000000000000000008152600401610e6b9190611608565b60405180910390fd5b8160015f8673ffffffffffffffffffffffffffffffffffffffff1673ffffffffffffffffffffffffffffffffffffffff1681526020019081526020015f205f8573ffffffffffffffffffffffffffffffffffffffff1673ffffffffffffffffffffffffffffffffffffffff1681526020019081526020015f20819055508015610f5d578273ffffffffffffffffffffffffffffffffffffffff168473ffffffffffffffffffffffffffffffffffffffff167f8c5be1e5ebec7d5bd14f71427d1e84f3dd0314c0f7b2291e5b200ac8c7c3b92584604051610f549190611344565b60405180910390a35b50505050565b5f73ffffffffffffffffffffffffffffffffffffffff168373ffffffffffffffffffffffffffffffffffffffff1603610fb3578060025f828254610fa791906117b9565b92505081905550611081565b5f805f8573ffffffffffffffffffffffffffffffffffffffff1673ffffffffffffffffffffffffffffffffffffffff1681526020019081526020015f205490508181101561103c578381836040517fe450d38c00000000000000000000000000000000000000000000000000000000815260040161103393929190611c21565b60405180910390fd5b8181035f808673ffffffffffffffffffffffffffffffffffffffff1673ffffffffffffffffffffffffffffffffffffffff1681526020019081526020015f2081905550505b5f73ffffffffffffffffffffffffffffffffffffffff168273ffffffffffffffffffffffffffffffffffffffff16036110c8578060025f8282540392505081905550611112565b805f808473ffffffffffffffffffffffffffffffffffffffff1673ffffffffffffffffffffffffffffffffffffffff1681526020019081526020015f205f82825401925050819055505b8173ffffffffffffffffffffffffffffffffffffffff168373ffffffffffffffffffffffffffffffffffffffff167fddf252ad1be2c89b69c2b068fc378daa952ba7f163c4a11628f55a4df523b3ef8360405161116f9190611344565b60405180910390a3505050565b5f81519050919050565b5f82825260208201905092915050565b5f5b838110156111b3578082015181840152602081019050611198565b5f8484015250505050565b5f601f19601f8301169050919050565b5f6111d88261117c565b6111e28185611186565b93506111f2818560208601611196565b6111fb816111be565b840191505092915050565b5f6020820190508181035f83015261121e81846111ce565b905092915050565b5f604051905090565b5f80fd5b5f80fd5b5f73ffffffffffffffffffffffffffffffffffffffff82169050919050565b5f61126082611237565b9050919050565b61127081611256565b811461127a575f80fd5b50565b5f8135905061128b81611267565b92915050565b5f819050919050565b6112a381611291565b81146112ad575f80fd5b50565b5f813590506112be8161129a565b92915050565b5f80604083850312156112da576112d961122f565b5b5f6112e78582860161127d565b92505060206112f8858286016112b0565b9150509250929050565b5f8115159050919050565b61131681611302565b82525050565b5f60208201905061132f5f83018461130d565b92915050565b61133e81611291565b82525050565b5f6020820190506113575f830184611335565b92915050565b5f805f606084860312156113745761137361122f565b5b5f6113818682870161127d565b93505060206113928682870161127d565b92505060406113a3868287016112b0565b9150509250925092565b5f60ff82169050919050565b6113c2816113ad565b82525050565b5f6020820190506113db5f8301846113b9565b92915050565b5f602082840312156113f6576113f561122f565b5b5f611403848285016112b0565b91505092915050565b5f60608201905061141f5f8301866113b9565b818103602083015261143181856111ce565b90506114406040830184611335565b949350505050565b5f6020828403121561145d5761145c61122f565b5b5f61146a8482850161127d565b91505092915050565b5f80fd5b5f80fd5b7f4e487b71000000000000000000000000000000000000000000000000000000005f52604160045260245ffd5b6114b1826111be565b810181811067ffffffffffffffff821117156114d0576114cf61147b565b5b80604052505050565b5f6114e2611226565b90506114ee82826114a8565b919050565b5f67ffffffffffffffff82111561150d5761150c61147b565b5b611516826111be565b9050602081019050919050565b828183375f83830152505050565b5f61154361153e846114f3565b6114d9565b90508281526020810184848401111561155f5761155e611477565b5b61156a848285611523565b509392505050565b5f82601f83011261158657611585611473565b5b8135611596848260208601611531565b91505092915050565b5f80604083850312156115b5576115b461122f565b5b5f83013567ffffffffffffffff8111156115d2576115d1611233565b5b6115de85828601611572565b92505060206115ef858286016112b0565b9150509250929050565b61160281611256565b82525050565b5f60208201905061161b5f8301846115f9565b92915050565b61162a816113ad565b8114611634575f80fd5b50565b5f8135905061164581611621565b92915050565b5f80604083850312156116615761166061122f565b5b5f61166e85828601611637565b925050602061167f858286016112b0565b9150509250929050565b5f806040838503121561169f5761169e61122f565b5b5f6116ac8582860161127d565b92505060206116bd8582860161127d565b9150509250929050565b7f4e487b71000000000000000000000000000000000000000000000000000000005f52602260045260245ffd5b5f600282049050600182168061170b57607f821691505b60208210810361171e5761171d6116c7565b5b50919050565b7f496e73756666696369656e742046756e647321000000000000000000000000005f82015250565b5f611758601383611186565b915061176382611724565b602082019050919050565b5f6020820190508181035f8301526117858161174c565b9050919050565b7f4e487b71000000000000000000000000000000000000000000000000000000005f52601160045260245ffd5b5f6117c382611291565b91506117ce83611291565b92508282019050808211156117e6576117e561178c565b5b92915050565b5f819050815f5260205f209050919050565b5f6020601f8301049050919050565b5f82821b905092915050565b5f600883026118487fffffffffffffffffffffffffffffffffffffffffffffffffffffffffffffffff8261180d565b611852868361180d565b95508019841693508086168417925050509392505050565b5f819050919050565b5f61188d61188861188384611291565b61186a565b611291565b9050919050565b5f819050919050565b6118a683611873565b6118ba6118b282611894565b848454611819565b825550505050565b5f90565b6118ce6118c2565b6118d981848461189d565b505050565b5b818110156118fc576118f15f826118c6565b6001810190506118df565b5050565b601f82111561194157611912816117ec565b61191b846117fe565b8101602085101561192a578190505b61193e611936856117fe565b8301826118de565b50505b505050565b5f82821c905092915050565b5f6119615f1984600802611946565b1980831691505092915050565b5f6119798383611952565b9150826002028217905092915050565b6119928261117c565b67ffffffffffffffff8111156119ab576119aa61147b565b5b6119b582546116f4565b6119c0828285611900565b5f60209050601f8311600181146119f1575f84156119df578287015190505b6119e9858261196e565b865550611a50565b601f1984166119ff866117ec565b5f5b82811015611a2657848901518255600182019150602085019450602081019050611a01565b86831015611a435784890151611a3f601f891682611952565b8355505b6001600288020188555050505b505050505050565b7f496e76616c6964206974656d20494400000000000000000000000000000000005f82015250565b5f611a8c600f83611186565b9150611a9782611a58565b602082019050919050565b5f6020820190508181035f830152611ab981611a80565b9050919050565b5f611aca826113ad565b9150611ad5836113ad565b9250828203905060ff811115611aee57611aed61178c565b5b92915050565b7f4e487b71000000000000000000000000000000000000000000000000000000005f52603260045260245ffd5b5f611b2b82611291565b9150611b3683611291565b9250828202611b4481611291565b91508282048414831517611b5b57611b5a61178c565b5b5092915050565b7f496e73756666696369656e742062616c616e6365203a280000000000000000005f82015250565b5f611b96601783611186565b9150611ba182611b62565b602082019050919050565b5f6020820190508181035f830152611bc381611b8a565b9050919050565b5f611be4611bdf611bda846113ad565b61186a565b611291565b9050919050565b611bf481611bca565b82525050565b5f604082019050611c0d5f830185611beb565b611c1a6020830184611335565b9392505050565b5f606082019050611c345f8301866115f9565b611c416020830185611335565b611c4e6040830184611335565b94935050505056fea2646970667358221220b6e08ad25bb37f949c85d68d180b2d527164c284e5254a5da38b1e670b44bc9364736f6c63430008140033",
  "linkReferences": {},
  "deployedLinkReferences": {}
}