{
  "_format": "hh-sol-artifact-1",
  "contractName": "DegenToken",
  "sourceName": "contracts/DegenToken.sol",
  "abi": [
    {
      "inputs": [],
      "stateMutability": "nonpayable",
      "type": "constructor"
    },
    {
      "inputs": [
        {
          "internalType": "address",
          "name": "spender",
          "type": "address"
        },
        {
          "internalType": "uint256",
          "name": "allowance",
          "type": "uint256"
        },
        {
          "internalType": "uint256",
          "name": "needed",
          "type": "uint256"
        }
      ],
      "name": "ERC20InsufficientAllowance",
      "type": "error"
    },
    {
      "inputs": [
        {
          "internalType": "address",
          "name": "sender",
          "type": "address"
        },
        {
          "internalType": "uint256",
          "name": "balance",
          "type": "uint256"
        },
        {
          "internalType": "uint256",
          "name": "needed",
          "type": "uint256"
        }
      ],
      "name": "ERC20InsufficientBalance",
      "type": "error"
    },
    {
      "inputs": [
        {
          "internalType": "address",
          "name": "approver",
          "type": "address"
        }
      ],
      "name": "ERC20InvalidApprover",
      "type": "error"
    },
    {
      "inputs": [
        {
          "internalType": "address",
          "name": "receiver",
          "type": "address"
        }
      ],
      "name": "ERC20InvalidReceiver",
      "type": "error"
    },
    {
      "inputs": [
        {
          "internalType": "address",
          "name": "sender",
          "type": "address"
        }
      ],
      "name": "ERC20InvalidSender",
      "type": "error"
    },
    {
      "inputs": [
        {
          "internalType": "address",
          "name": "spender",
          "type": "address"
        }
      ],
      "name": "ERC20InvalidSpender",
      "type": "error"
    },
    {
      "inputs": [
        {
          "internalType": "address",
          "name": "owner",
          "type": "address"
        }
      ],
      "name": "OwnableInvalidOwner",
      "type": "error"
    },
    {
      "inputs": [
        {
          "internalType": "address",
          "name": "account",
          "type": "address"
        }
      ],
      "name": "OwnableUnauthorizedAccount",
      "type": "error"
    },
    {
      "anonymous": false,
      "inputs": [
        {
          "indexed": true,
          "internalType": "address",
          "name": "owner",
          "type": "address"
        },
        {
          "indexed": true,
          "internalType": "address",
          "name": "spender",
          "type": "address"
        },
        {
          "indexed": false,
          "internalType": "uint256",
          "name": "value",
          "type": "uint256"
        }
      ],
      "name": "Approval",
      "type": "event"
    },
    {
      "anonymous": false,
      "inputs": [
        {
          "indexed": true,
          "internalType": "address",
          "name": "previousOwner",
          "type": "address"
        },
        {
          "indexed": true,
          "internalType": "address",
          "name": "newOwner",
          "type": "address"
        }
      ],
      "name": "OwnershipTransferred",
      "type": "event"
    },
    {
      "anonymous": false,
      "inputs": [
        {
          "indexed": true,
          "internalType": "address",
          "name": "from",
          "type": "address"
        },
        {
          "indexed": true,
          "internalType": "address",
          "name": "to",
          "type": "address"
        },
        {
          "indexed": false,
          "internalType": "uint256",
          "name": "value",
          "type": "uint256"
        }
      ],
      "name": "Transfer",
      "type": "event"
    },
    {
      "anonymous": false,
      "inputs": [
        {
          "indexed": true,
          "internalType": "address",
          "name": "buyer",
          "type": "address"
        },
        {
          "indexed": false,
          "internalType": "uint256",
          "name": "itemId",
          "type": "uint256"
        },
        {
          "indexed": false,
          "internalType": "uint256",
          "name": "quantity",
          "type": "uint256"
        }
      ],
      "name": "itemPurchased",
      "type": "event"
    },
    {
      "inputs": [
        {
          "internalType": "address",
          "name": "",
          "type": "address"
        },
        {
          "internalType": "uint256",
          "name": "",
          "type": "uint256"
        }
      ],
      "name": "addressToItemsOwned",
      "outputs": [
        {
          "internalType": "string",
          "name": "name",
          "type": "string"
        },
        {
          "internalType": "uint256",
          "name": "quantity",
          "type": "uint256"
        }
      ],
      "stateMutability": "view",
      "type": "function"
    },
    {
      "inputs": [
        {
          "internalType": "address",
          "name": "owner",
          "type": "address"
        },
        {
          "internalType": "address",
          "name": "spender",
          "type": "address"
        }
      ],
      "name": "allowance",
      "outputs": [
        {
          "internalType": "uint256",
          "name": "",
          "type": "uint256"
        }
      ],
      "stateMutability": "view",
      "type": "function"
    },
    {
      "inputs": [
        {
          "internalType": "address",
          "name": "spender",
          "type": "address"
        },
        {
          "internalType": "uint256",
          "name": "value",
          "type": "uint256"
        }
      ],
      "name": "approve",
      "outputs": [
        {
          "internalType": "bool",
          "name": "",
          "type": "bool"
        }
      ],
      "stateMutability": "nonpayable",
      "type": "function"
    },
    {
      "inputs": [
        {
          "internalType": "address",
          "name": "account",
          "type": "address"
        }
      ],
      "name": "balanceOf",
      "outputs": [
        {
          "internalType": "uint256",
          "name": "",
          "type": "uint256"
        }
      ],
      "stateMutability": "view",
      "type": "function"
    },
    {
      "inputs": [
        {
          "internalType": "uint256",
          "name": "_value",
          "type": "uint256"
        }
      ],
      "name": "burnTokens",
      "outputs": [],
      "stateMutability": "nonpayable",
      "type": "function"
    },
    {
      "inputs": [
        {
          "internalType": "string",
          "name": "_name",
          "type": "string"
        },
        {
          "internalType": "uint256",
          "name": "_price",
          "type": "uint256"
        }
      ],
      "name": "createNewItem",
      "outputs": [],
      "stateMutability": "nonpayable",
      "type": "function"
    },
    {
      "inputs": [],
      "name": "decimals",
      "outputs": [
        {
          "internalType": "uint8",
          "name": "",
          "type": "uint8"
        }
      ],
      "stateMutability": "view",
      "type": "function"
    },
    {
      "inputs": [
        {
          "internalType": "address",
          "name": "buyer",
          "type": "address"
        }
      ],
      "name": "getItemsPurchasedByAddress",
      "outputs": [
        {
          "components": [
            {
              "internalType": "string",
              "name": "name",
              "type": "string"
            },
            {
              "internalType": "uint256",
              "name": "quantity",
              "type": "uint256"
            }
          ],
          "internalType": "struct DegenToken.ownedItems[]",
          "name": "",
          "type": "tuple[]"
        }
      ],
      "stateMutability": "view",
      "type": "function"
    },
    {
      "inputs": [
        {
          "internalType": "address",
          "name": "to",
          "type": "address"
        },
        {
          "internalType": "uint256",
          "name": "amount",
          "type": "uint256"
        }
      ],
      "name": "mint",
      "outputs": [],
      "stateMutability": "nonpayable",
      "type": "function"
    },
    {
      "inputs": [],
      "name": "name",
      "outputs": [
        {
          "internalType": "string",
          "name": "",
          "type": "string"
        }
      ],
      "stateMutability": "view",
      "type": "function"
    },
    {
      "inputs": [],
      "name": "owner",
      "outputs": [
        {
          "internalType": "address",
          "name": "",
          "type": "address"
        }
      ],
      "stateMutability": "view",
      "type": "function"
    },
    {
      "inputs": [
        {
          "internalType": "uint8",
          "name": "_itemId",
          "type": "uint8"
        },
        {
          "internalType": "uint256",
          "name": "_quantity",
          "type": "uint256"
        }
      ],
      "name": "purchaseItem",
      "outputs": [],
      "stateMutability": "nonpayable",
      "type": "function"
    },
    {
      "inputs": [],
      "name": "renounceOwnership",
      "outputs": [],
      "stateMutability": "nonpayable",
      "type": "function"
    },
    {
      "inputs": [
        {
          "internalType": "uint256",
          "name": "",
          "type": "uint256"
        }
      ],
      "name": "shopItems",
      "outputs": [
        {
          "internalType": "uint8",
          "name": "itemId",
          "type": "uint8"
        },
        {
          "internalType": "string",
          "name": "name",
          "type": "string"
        },
        {
          "internalType": "uint256",
          "name": "price",
          "type": "uint256"
        }
      ],
      "stateMutability": "view",
      "type": "function"
    },
    {
      "inputs": [],
      "name": "symbol",
      "outputs": [
        {
          "internalType": "string",
          "name": "",
          "type": "string"
        }
      ],
      "stateMutability": "view",
      "type": "function"
    },
    {
      "inputs": [],
      "name": "totalSupply",
      "outputs": [
        {
          "internalType": "uint256",
          "name": "",
          "type": "uint256"
        }
      ],
      "stateMutability": "view",
      "type": "function"
    },
    {
      "inputs": [
        {
          "internalType": "address",
          "name": "to",
          "type": "address"
        },
        {
          "internalType": "uint256",
          "name": "value",
          "type": "uint256"
        }
      ],
      "name": "transfer",
      "outputs": [
        {
          "internalType": "bool",
          "name": "",
          "type": "bool"
        }
      ],
      "stateMutability": "nonpayable",
      "type": "function"
    },
    {
      "inputs": [
        {
          "internalType": "address",
          "name": "from",
          "type": "address"
        },
        {
          "internalType": "address",
          "name": "to",
          "type": "address"
        },
        {
          "internalType": "uint256",
          "name": "value",
          "type": "uint256"
        }
      ],
      "name": "transferFrom",
      "outputs": [
        {
          "internalType": "bool",
          "name": "",
          "type": "bool"
        }
      ],
      "stateMutability": "nonpayable",
      "type": "function"
    },
    {
      "inputs": [
        {
          "internalType": "address",
          "name": "newOwner",
          "type": "address"
        }
      ],
      "name": "transferOwnership",
      "outputs": [],
      "stateMutability": "nonpayable",
      "type": "function"
    }
  ],
  "bytecode": "0x60806040523480156200001157600080fd5b50336040518060400160405280600581526020017f446567656e0000000000000000000000000000000000000000000000000000008152506040518060400160405280600381526020017f44474e0000000000000000000000000000000000000000000000000000000000815250816003908162000090919062000472565b508060049081620000a2919062000472565b505050600073ffffffffffffffffffffffffffffffffffffffff168173ffffffffffffffffffffffffffffffffffffffff16036200011a5760006040517f1e4fbdf70000000000000000000000000000000000000000000000000000000081526004016200011191906200059e565b60405180910390fd5b6200012b816200013260201b60201c565b50620005bb565b6000600560009054906101000a900473ffffffffffffffffffffffffffffffffffffffff16905081600560006101000a81548173ffffffffffffffffffffffffffffffffffffffff021916908373ffffffffffffffffffffffffffffffffffffffff1602179055508173ffffffffffffffffffffffffffffffffffffffff168173ffffffffffffffffffffffffffffffffffffffff167f8be0079c531659141344cd1fd0a4f28419497f9722a3daafe3b4186f6b6457e060405160405180910390a35050565b600081519050919050565b7f4e487b7100000000000000000000000000000000000000000000000000000000600052604160045260246000fd5b7f4e487b7100000000000000000000000000000000000000000000000000000000600052602260045260246000fd5b600060028204905060018216806200027a57607f821691505b60208210810362000290576200028f62000232565b5b50919050565b60008190508160005260206000209050919050565b60006020601f8301049050919050565b600082821b905092915050565b600060088302620002fa7fffffffffffffffffffffffffffffffffffffffffffffffffffffffffffffffff82620002bb565b620003068683620002bb565b95508019841693508086168417925050509392505050565b6000819050919050565b6000819050919050565b6000620003536200034d62000347846200031e565b62000328565b6200031e565b9050919050565b6000819050919050565b6200036f8362000332565b620003876200037e826200035a565b848454620002c8565b825550505050565b600090565b6200039e6200038f565b620003ab81848462000364565b505050565b5b81811015620003d357620003c760008262000394565b600181019050620003b1565b5050565b601f8211156200042257620003ec8162000296565b620003f784620002ab565b8101602085101562000407578190505b6200041f6200041685620002ab565b830182620003b0565b50505b505050565b600082821c905092915050565b6000620004476000198460080262000427565b1980831691505092915050565b600062000462838362000434565b9150826002028217905092915050565b6200047d82620001f8565b67ffffffffffffffff81111562000499576200049862000203565b5b620004a5825462000261565b620004b2828285620003d7565b600060209050601f831160018114620004ea5760008415620004d5578287015190505b620004e1858262000454565b86555062000551565b601f198416620004fa8662000296565b60005b828110156200052457848901518255600182019150602085019450602081019050620004fd565b8683101562000544578489015162000540601f89168262000434565b8355505b6001600288020188555050505b505050505050565b600073ffffffffffffffffffffffffffffffffffffffff82169050919050565b6000620005868262000559565b9050919050565b620005988162000579565b82525050565b6000602082019050620005b560008301846200058d565b92915050565b6122c580620005cb6000396000f3fe608060405234801561001057600080fd5b50600436106101215760003560e01c80636ec48484116100ad57806391708b281161007157806391708b281461031f57806395d89b411461033b578063a9059cbb14610359578063dd62ed3e14610389578063f2fde38b146103b957610121565b80636ec484841461027b57806370a08231146102ab578063715018a6146102db57806382ce90c0146102e55780638da5cb5b1461030157610121565b8063313ce567116100f4578063313ce567146101c257806335bf2940146101e057806340c10f19146102115780635ca9e3801461022d5780636d1b229d1461025f57610121565b806306fdde0314610126578063095ea7b31461014457806318160ddd1461017457806323b872dd14610192575b600080fd5b61012e6103d5565b60405161013b9190611636565b60405180910390f35b61015e60048036038101906101599190611700565b610467565b60405161016b919061175b565b60405180910390f35b61017c61048a565b6040516101899190611785565b60405180910390f35b6101ac60048036038101906101a791906117a0565b610494565b6040516101b9919061175b565b60405180910390f35b6101ca6104c3565b6040516101d7919061180f565b60405180910390f35b6101fa60048036038101906101f59190611700565b6104c8565b60405161020892919061182a565b60405180910390f35b61022b60048036038101906102269190611700565b610591565b005b6102476004803603810190610242919061185a565b6105a7565b60405161025693929190611887565b60405180910390f35b6102796004803603810190610274919061185a565b610676565b005b610295600480360381019061029091906118c5565b6106ce565b6040516102a29190611a4a565b60405180910390f35b6102c560048036038101906102c091906118c5565b610808565b6040516102d29190611785565b60405180910390f35b6102e3610850565b005b6102ff60048036038101906102fa9190611ba1565b610864565b005b61030961090d565b6040516103169190611c0c565b60405180910390f35b61033960048036038101906103349190611c53565b610937565b005b610343610bf5565b6040516103509190611636565b60405180910390f35b610373600480360381019061036e9190611700565b610c87565b604051610380919061175b565b60405180910390f35b6103a3600480360381019061039e9190611c93565b610caa565b6040516103b09190611785565b60405180910390f35b6103d360048036038101906103ce91906118c5565b610d31565b005b6060600380546103e490611d02565b80601f016020809104026020016040519081016040528092919081815260200182805461041090611d02565b801561045d5780601f106104325761010080835404028352916020019161045d565b820191906000526020600020905b81548152906001019060200180831161044057829003601f168201915b5050505050905090565b600080610472610db7565b905061047f818585610dbf565b600191505092915050565b6000600254905090565b60008061049f610db7565b90506104ac858285610dd1565b6104b7858585610e65565b60019150509392505050565b600090565b600660205281600052604060002081815481106104e457600080fd5b90600052602060002090600202016000915091505080600001805461050890611d02565b80601f016020809104026020016040519081016040528092919081815260200182805461053490611d02565b80156105815780601f1061055657610100808354040283529160200191610581565b820191906000526020600020905b81548152906001019060200180831161056457829003601f168201915b5050505050908060010154905082565b610599610f59565b6105a38282610fe0565b5050565b600781815481106105b757600080fd5b90600052602060002090600302016000915090508060000160009054906101000a900460ff16908060010180546105ed90611d02565b80601f016020809104026020016040519081016040528092919081815260200182805461061990611d02565b80156106665780601f1061063b57610100808354040283529160200191610666565b820191906000526020600020905b81548152906001019060200180831161064957829003601f168201915b5050505050908060020154905083565b8061068033610808565b10156106c1576040517f08c379a00000000000000000000000000000000000000000000000000000000081526004016106b890611d7f565b60405180910390fd5b6106cb3382611062565b50565b6060600660008373ffffffffffffffffffffffffffffffffffffffff1673ffffffffffffffffffffffffffffffffffffffff168152602001908152602001600020805480602002602001604051908101604052809291908181526020016000905b828210156107fd578382906000526020600020906002020160405180604001604052908160008201805461076290611d02565b80601f016020809104026020016040519081016040528092919081815260200182805461078e90611d02565b80156107db5780601f106107b0576101008083540402835291602001916107db565b820191906000526020600020905b8154815290600101906020018083116107be57829003601f168201915b505050505081526020016001820154815250508152602001906001019061072f565b505050509050919050565b60008060008373ffffffffffffffffffffffffffffffffffffffff1673ffffffffffffffffffffffffffffffffffffffff168152602001908152602001600020549050919050565b610858610f59565b61086260006110e4565b565b61086c610f59565b60076040518060600160405280600160078054905061088b9190611dce565b60ff16815260200184815260200183815250908060018154018082558091505060019003906000526020600020906003020160009091909190915060008201518160000160006101000a81548160ff021916908360ff16021790555060208201518160010190816108fc9190611fae565b506040820151816002015550505050565b6000600560009054906101000a900473ffffffffffffffffffffffffffffffffffffffff16905090565b60008260ff1611801561095257506007805490508260ff1611155b610991576040517f08c379a0000000000000000000000000000000000000000000000000000000008152600401610988906120cc565b60405180910390fd5b60008160076001856109a391906120ec565b60ff16815481106109b7576109b6612121565b5b9060005260206000209060030201600201546109d39190612150565b9050806109e66109e1610db7565b610808565b1015610a27576040517f08c379a0000000000000000000000000000000000000000000000000000000008152600401610a1e906121de565b60405180910390fd5b610a38610a32610db7565b82611062565b600060405180604001604052806007600187610a5491906120ec565b60ff1681548110610a6857610a67612121565b5b90600052602060002090600302016001018054610a8490611d02565b80601f0160208091040260200160405190810160405280929190818152602001828054610ab090611d02565b8015610afd5780601f10610ad257610100808354040283529160200191610afd565b820191906000526020600020905b815481529060010190602001808311610ae057829003601f168201915b50505050508152602001848152509050600660003373ffffffffffffffffffffffffffffffffffffffff1673ffffffffffffffffffffffffffffffffffffffff1681526020019081526020016000208190806001815401808255809150506001900390600052602060002090600202016000909190919091506000820151816000019081610b8b9190611fae565b50602082015181600101555050610ba0610db7565b73ffffffffffffffffffffffffffffffffffffffff167ffd80f748202072fbf019cde492b4320cc89d62fffe36601374a986d5db4636528585604051610be792919061222f565b60405180910390a250505050565b606060048054610c0490611d02565b80601f0160208091040260200160405190810160405280929190818152602001828054610c3090611d02565b8015610c7d5780601f10610c5257610100808354040283529160200191610c7d565b820191906000526020600020905b815481529060010190602001808311610c6057829003601f168201915b5050505050905090565b600080610c92610db7565b9050610c9f818585610e65565b600191505092915050565b6000600160008473ffffffffffffffffffffffffffffffffffffffff1673ffffffffffffffffffffffffffffffffffffffff16815260200190815260200160002060008373ffffffffffffffffffffffffffffffffffffffff1673ffffffffffffffffffffffffffffffffffffffff16815260200190815260200160002054905092915050565b610d39610f59565b600073ffffffffffffffffffffffffffffffffffffffff168173ffffffffffffffffffffffffffffffffffffffff1603610dab5760006040517f1e4fbdf7000000000000000000000000000000000000000000000000000000008152600401610da29190611c0c565b60405180910390fd5b610db4816110e4565b50565b600033905090565b610dcc83838360016111aa565b505050565b6000610ddd8484610caa565b90507fffffffffffffffffffffffffffffffffffffffffffffffffffffffffffffffff8114610e5f5781811015610e4f578281836040517ffb8f41b2000000000000000000000000000000000000000000000000000000008152600401610e4693929190612258565b60405180910390fd5b610e5e848484840360006111aa565b5b50505050565b600073ffffffffffffffffffffffffffffffffffffffff168373ffffffffffffffffffffffffffffffffffffffff1603610ed75760006040517f96c6fd1e000000000000000000000000000000000000000000000000000000008152600401610ece9190611c0c565b60405180910390fd5b600073ffffffffffffffffffffffffffffffffffffffff168273ffffffffffffffffffffffffffffffffffffffff1603610f495760006040517fec442f05000000000000000000000000000000000000000000000000000000008152600401610f409190611c0c565b60405180910390fd5b610f54838383611381565b505050565b610f61610db7565b73ffffffffffffffffffffffffffffffffffffffff16610f7f61090d565b73ffffffffffffffffffffffffffffffffffffffff1614610fde57610fa2610db7565b6040517f118cdaa7000000000000000000000000000000000000000000000000000000008152600401610fd59190611c0c565b60405180910390fd5b565b600073ffffffffffffffffffffffffffffffffffffffff168273ffffffffffffffffffffffffffffffffffffffff16036110525760006040517fec442f050000000000000000000000000000000000000000000000000000000081526004016110499190611c0c565b60405180910390fd5b61105e60008383611381565b5050565b600073ffffffffffffffffffffffffffffffffffffffff168273ffffffffffffffffffffffffffffffffffffffff16036110d45760006040517f96c6fd1e0000000000000000000000000000000000000000000000000000000081526004016110cb9190611c0c565b60405180910390fd5b6110e082600083611381565b5050565b6000600560009054906101000a900473ffffffffffffffffffffffffffffffffffffffff16905081600560006101000a81548173ffffffffffffffffffffffffffffffffffffffff021916908373ffffffffffffffffffffffffffffffffffffffff1602179055508173ffffffffffffffffffffffffffffffffffffffff168173ffffffffffffffffffffffffffffffffffffffff167f8be0079c531659141344cd1fd0a4f28419497f9722a3daafe3b4186f6b6457e060405160405180910390a35050565b600073ffffffffffffffffffffffffffffffffffffffff168473ffffffffffffffffffffffffffffffffffffffff160361121c5760006040517fe602df050000000000000000000000000000000000000000000000000000000081526004016112139190611c0c565b60405180910390fd5b600073ffffffffffffffffffffffffffffffffffffffff168373ffffffffffffffffffffffffffffffffffffffff160361128e5760006040517f94280d620000000000000000000000000000000000000000000000000000000081526004016112859190611c0c565b60405180910390fd5b81600160008673ffffffffffffffffffffffffffffffffffffffff1673ffffffffffffffffffffffffffffffffffffffff16815260200190815260200160002060008573ffffffffffffffffffffffffffffffffffffffff1673ffffffffffffffffffffffffffffffffffffffff16815260200190815260200160002081905550801561137b578273ffffffffffffffffffffffffffffffffffffffff168473ffffffffffffffffffffffffffffffffffffffff167f8c5be1e5ebec7d5bd14f71427d1e84f3dd0314c0f7b2291e5b200ac8c7c3b925846040516113729190611785565b60405180910390a35b50505050565b600073ffffffffffffffffffffffffffffffffffffffff168373ffffffffffffffffffffffffffffffffffffffff16036113d35780600260008282546113c79190611dce565b925050819055506114a6565b60008060008573ffffffffffffffffffffffffffffffffffffffff1673ffffffffffffffffffffffffffffffffffffffff1681526020019081526020016000205490508181101561145f578381836040517fe450d38c00000000000000000000000000000000000000000000000000000000815260040161145693929190612258565b60405180910390fd5b8181036000808673ffffffffffffffffffffffffffffffffffffffff1673ffffffffffffffffffffffffffffffffffffffff16815260200190815260200160002081905550505b600073ffffffffffffffffffffffffffffffffffffffff168273ffffffffffffffffffffffffffffffffffffffff16036114ef578060026000828254039250508190555061153c565b806000808473ffffffffffffffffffffffffffffffffffffffff1673ffffffffffffffffffffffffffffffffffffffff168152602001908152602001600020600082825401925050819055505b8173ffffffffffffffffffffffffffffffffffffffff168373ffffffffffffffffffffffffffffffffffffffff167fddf252ad1be2c89b69c2b068fc378daa952ba7f163c4a11628f55a4df523b3ef836040516115999190611785565b60405180910390a3505050565b600081519050919050565b600082825260208201905092915050565b60005b838110156115e05780820151818401526020810190506115c5565b60008484015250505050565b6000601f19601f8301169050919050565b6000611608826115a6565b61161281856115b1565b93506116228185602086016115c2565b61162b816115ec565b840191505092915050565b6000602082019050818103600083015261165081846115fd565b905092915050565b6000604051905090565b600080fd5b600080fd5b600073ffffffffffffffffffffffffffffffffffffffff82169050919050565b60006116978261166c565b9050919050565b6116a78161168c565b81146116b257600080fd5b50565b6000813590506116c48161169e565b92915050565b6000819050919050565b6116dd816116ca565b81146116e857600080fd5b50565b6000813590506116fa816116d4565b92915050565b6000806040838503121561171757611716611662565b5b6000611725858286016116b5565b9250506020611736858286016116eb565b9150509250929050565b60008115159050919050565b61175581611740565b82525050565b6000602082019050611770600083018461174c565b92915050565b61177f816116ca565b82525050565b600060208201905061179a6000830184611776565b92915050565b6000806000606084860312156117b9576117b8611662565b5b60006117c7868287016116b5565b93505060206117d8868287016116b5565b92505060406117e9868287016116eb565b9150509250925092565b600060ff82169050919050565b611809816117f3565b82525050565b60006020820190506118246000830184611800565b92915050565b6000604082019050818103600083015261184481856115fd565b90506118536020830184611776565b9392505050565b6000602082840312156118705761186f611662565b5b600061187e848285016116eb565b91505092915050565b600060608201905061189c6000830186611800565b81810360208301526118ae81856115fd565b90506118bd6040830184611776565b949350505050565b6000602082840312156118db576118da611662565b5b60006118e9848285016116b5565b91505092915050565b600081519050919050565b600082825260208201905092915050565b6000819050602082019050919050565b600082825260208201905092915050565b600061193a826115a6565b611944818561191e565b93506119548185602086016115c2565b61195d816115ec565b840191505092915050565b611971816116ca565b82525050565b60006040830160008301518482036000860152611994828261192f565b91505060208301516119a96020860182611968565b508091505092915050565b60006119c08383611977565b905092915050565b6000602082019050919050565b60006119e0826118f2565b6119ea81856118fd565b9350836020820285016119fc8561190e565b8060005b85811015611a385784840389528151611a1985826119b4565b9450611a24836119c8565b925060208a01995050600181019050611a00565b50829750879550505050505092915050565b60006020820190508181036000830152611a6481846119d5565b905092915050565b600080fd5b600080fd5b7f4e487b7100000000000000000000000000000000000000000000000000000000600052604160045260246000fd5b611aae826115ec565b810181811067ffffffffffffffff82111715611acd57611acc611a76565b5b80604052505050565b6000611ae0611658565b9050611aec8282611aa5565b919050565b600067ffffffffffffffff821115611b0c57611b0b611a76565b5b611b15826115ec565b9050602081019050919050565b82818337600083830152505050565b6000611b44611b3f84611af1565b611ad6565b905082815260208101848484011115611b6057611b5f611a71565b5b611b6b848285611b22565b509392505050565b600082601f830112611b8857611b87611a6c565b5b8135611b98848260208601611b31565b91505092915050565b60008060408385031215611bb857611bb7611662565b5b600083013567ffffffffffffffff811115611bd657611bd5611667565b5b611be285828601611b73565b9250506020611bf3858286016116eb565b9150509250929050565b611c068161168c565b82525050565b6000602082019050611c216000830184611bfd565b92915050565b611c30816117f3565b8114611c3b57600080fd5b50565b600081359050611c4d81611c27565b92915050565b60008060408385031215611c6a57611c69611662565b5b6000611c7885828601611c3e565b9250506020611c89858286016116eb565b9150509250929050565b60008060408385031215611caa57611ca9611662565b5b6000611cb8858286016116b5565b9250506020611cc9858286016116b5565b9150509250929050565b7f4e487b7100000000000000000000000000000000000000000000000000000000600052602260045260246000fd5b60006002820490506001821680611d1a57607f821691505b602082108103611d2d57611d2c611cd3565b5b50919050565b7f496e73756666696369656e742046756e64732100000000000000000000000000600082015250565b6000611d696013836115b1565b9150611d7482611d33565b602082019050919050565b60006020820190508181036000830152611d9881611d5c565b9050919050565b7f4e487b7100000000000000000000000000000000000000000000000000000000600052601160045260246000fd5b6000611dd9826116ca565b9150611de4836116ca565b9250828201905080821115611dfc57611dfb611d9f565b5b92915050565b60008190508160005260206000209050919050565b60006020601f8301049050919050565b600082821b905092915050565b600060088302611e647fffffffffffffffffffffffffffffffffffffffffffffffffffffffffffffffff82611e27565b611e6e8683611e27565b95508019841693508086168417925050509392505050565b6000819050919050565b6000611eab611ea6611ea1846116ca565b611e86565b6116ca565b9050919050565b6000819050919050565b611ec583611e90565b611ed9611ed182611eb2565b848454611e34565b825550505050565b600090565b611eee611ee1565b611ef9818484611ebc565b505050565b5b81811015611f1d57611f12600082611ee6565b600181019050611eff565b5050565b601f821115611f6257611f3381611e02565b611f3c84611e17565b81016020851015611f4b578190505b611f5f611f5785611e17565b830182611efe565b50505b505050565b600082821c905092915050565b6000611f8560001984600802611f67565b1980831691505092915050565b6000611f9e8383611f74565b9150826002028217905092915050565b611fb7826115a6565b67ffffffffffffffff811115611fd057611fcf611a76565b5b611fda8254611d02565b611fe5828285611f21565b600060209050601f8311600181146120185760008415612006578287015190505b6120108582611f92565b865550612078565b601f19841661202686611e02565b60005b8281101561204e57848901518255600182019150602085019450602081019050612029565b8683101561206b5784890151612067601f891682611f74565b8355505b6001600288020188555050505b505050505050565b7f496e76616c6964206974656d2049440000000000000000000000000000000000600082015250565b60006120b6600f836115b1565b91506120c182612080565b602082019050919050565b600060208201905081810360008301526120e5816120a9565b9050919050565b60006120f7826117f3565b9150612102836117f3565b9250828203905060ff81111561211b5761211a611d9f565b5b92915050565b7f4e487b7100000000000000000000000000000000000000000000000000000000600052603260045260246000fd5b600061215b826116ca565b9150612166836116ca565b9250828202612174816116ca565b9150828204841483151761218b5761218a611d9f565b5b5092915050565b7f496e73756666696369656e742062616c616e6365203a28000000000000000000600082015250565b60006121c86017836115b1565b91506121d382612192565b602082019050919050565b600060208201905081810360008301526121f7816121bb565b9050919050565b600061221961221461220f846117f3565b611e86565b6116ca565b9050919050565b612229816121fe565b82525050565b60006040820190506122446000830185612220565b6122516020830184611776565b9392505050565b600060608201905061226d6000830186611bfd565b61227a6020830185611776565b6122876040830184611776565b94935050505056fea26469706673582212206785df2cfb2a7a1be11187626bb4777e7f5c1301fc8b98709938a470690b2e4864736f6c63430008140033",
  "linkReferences": {},
  "deployedLinkReferences": {}
}